{
  "contractName": "Donations",
  "abi": [
    {
      "inputs": [],
      "payable": false,
      "stateMutability": "nonpayable",
      "type": "constructor"
    },
    {
      "constant": true,
      "inputs": [],
      "name": "donationAmount",
      "outputs": [
        {
          "internalType": "uint256",
          "name": "",
          "type": "uint256"
        }
      ],
      "payable": false,
      "stateMutability": "view",
      "type": "function"
    },
    {
      "constant": true,
      "inputs": [],
      "name": "owner",
      "outputs": [
        {
          "internalType": "address payable",
          "name": "",
          "type": "address"
        }
      ],
      "payable": false,
      "stateMutability": "view",
      "type": "function"
    },
    {
      "constant": false,
      "inputs": [],
      "name": "donate",
      "outputs": [],
      "payable": true,
      "stateMutability": "payable",
      "type": "function"
    },
    {
      "constant": false,
      "inputs": [],
      "name": "withdraw",
      "outputs": [],
      "payable": false,
      "stateMutability": "nonpayable",
      "type": "function"
    }
  ],
  "bytecode": "0x608060405234801561001057600080fd5b50336000806101000a81548173ffffffffffffffffffffffffffffffffffffffff021916908373ffffffffffffffffffffffffffffffffffffffff1602179055506102a1806100606000396000f3fe60806040526004361061003f5760003560e01c80633ccfd60b146100445780634bed6c231461005b5780638da5cb5b14610086578063ed88c68e146100dd575b600080fd5b34801561005057600080fd5b506100596100e7565b005b34801561006757600080fd5b50610070610206565b6040518082815260200191505060405180910390f35b34801561009257600080fd5b5061009b61020c565b604051808273ffffffffffffffffffffffffffffffffffffffff1673ffffffffffffffffffffffffffffffffffffffff16815260200191505060405180910390f35b6100e5610231565b005b6000809054906101000a900473ffffffffffffffffffffffffffffffffffffffff1673ffffffffffffffffffffffffffffffffffffffff163373ffffffffffffffffffffffffffffffffffffffff161461018c576040517f08c379a00000000000000000000000000000000000000000000000000000000081526004018080602001828103825260298152602001806102446029913960400191505060405180910390fd5b6000600154905060006001819055506000809054906101000a900473ffffffffffffffffffffffffffffffffffffffff1673ffffffffffffffffffffffffffffffffffffffff166108fc829081150290604051600060405180830381858888f19350505050158015610202573d6000803e3d6000fd5b5050565b60015481565b6000809054906101000a900473ffffffffffffffffffffffffffffffffffffffff1681565b3460016000828254019250508190555056fe4f6e6c79207468652070657473686f70206f776e65722063616e207769746864726177206574686572a265627a7a72315820e943fb1d2c8b07ebba61975521ed8561d51aa4ac54f8a6be44377968fc2c5d6164736f6c63430005100032",
  "source": "pragma solidity ^0.5.0;\r\n\r\ncontract Adoption {\r\n    address[16] public adopters;\r\n    uint[16] public breedAdoptionCounts;\r\n    mapping (address => uint) public petReturnFees;\r\n\r\n    // Adopting a pet\r\n    function adopt(uint petId) public returns (uint) {\r\n        require(petId >= 0 && petId <= 15);\r\n\r\n        adopters[petId] = msg.sender;\r\n        breedAdoptionCounts[petId]++;\r\n\r\n        return petId;\r\n    }\r\n\r\n    // Return an adopted pet\r\n    function returnAdoptedPet(uint petId) public payable returns (uint) {\r\n        require(petId >= 0 && petId <= 15);\r\n        require(adopters[petId] == msg.sender);\r\n        require(msg.value == 0.5 ether);\r\n\r\n        adopters[petId] = address(0);\r\n        breedAdoptionCounts[petId]--;\r\n        petReturnFees[msg.sender] += msg.value;\r\n\r\n        return petId;\r\n    }\r\n\r\n\r\n    // Retrieving the adopters\r\n    function getAdopters() public view returns (address[16] memory) {\r\n        return adopters;\r\n    }\r\n\r\n    // Retrieving breed adoption counts\r\n    function getBreedAdoptionCounts() public view returns (uint[16] memory) {\r\n        return breedAdoptionCounts;\r\n    }  \r\n}\r\n\r\ncontract Election {\r\n    // Model a Candidate\r\n    struct Candidate {\r\n        uint id;\r\n        string name;\r\n        uint voteCount;\r\n    }\r\n    // Store accounts that have voted\r\n    mapping(address => bool) public voters;\r\n\r\n    // Read/write candidates\r\n    mapping(uint => Candidate) public candidates;\r\n\r\n    // Store Candidates Count\r\n    uint public candidatesCount;\r\n\r\n    constructor() public {\r\n        addCandidate(\"Boxer\");\r\n        addCandidate(\"French Bulldog\");\r\n        addCandidate(\"Golden Retriever\");\r\n        addCandidate(\"Scottish Terrier\");\r\n    }\r\n\r\n    function addCandidate (string memory _name) private {\r\n        candidatesCount ++;\r\n        candidates[candidatesCount] = Candidate(candidatesCount, _name, 0);\r\n    }\r\n\r\n     function vote (uint _candidateId) public {\r\n        // require that they haven't voted before\r\n        require(!voters[msg.sender]);\r\n\r\n        // require a valid candidate\r\n        require(_candidateId > 0 && _candidateId <= candidatesCount);\r\n\r\n        // record that voter has voted\r\n        voters[msg.sender] = true;\r\n\r\n        // update candidate vote Count\r\n        candidates[_candidateId].voteCount ++;\r\n    }\r\n}\r\n    contract Donations {\r\n    address payable public owner;\r\n    uint public donationAmount;\r\n\r\n    constructor() public {\r\n        owner = msg.sender;\r\n    }\r\n\r\n    function donate() public payable {\r\n        donationAmount += msg.value;\r\n    }\r\n\r\n    function withdraw() public {\r\n        require(msg.sender == owner, \"Only the petshop owner can withdraw ether\");\r\n        uint amount = donationAmount;\r\n        donationAmount = 0;\r\n        owner.transfer(amount);\r\n    }\r\n}",
  "sourcePath": "C:\\Users\\sophi\\Desktop\\pet-shop-final\\contracts\\Adoption.sol",
  "compiler": {
    "name": "solc",
    "version": "0.5.16+commit.9c3226ce.Emscripten.clang"
  },
  "schemaVersion": "3.4.13",
  "updatedAt": "2023-04-12T14:22:12.492Z",
  "networkType": "ethereum",
  "devdoc": {
    "methods": {}
  },
  "userdoc": {
    "methods": {}
  }
}